{
  "contractName": "Governance",
  "abi": [
    {
      "inputs": [],
      "stateMutability": "nonpayable",
      "type": "constructor"
    },
    {
      "anonymous": false,
      "inputs": [
        {
          "indexed": false,
          "internalType": "uint256",
          "name": "proposalId",
          "type": "uint256"
        },
        {
          "indexed": false,
          "internalType": "string",
          "name": "description",
          "type": "string"
        }
      ],
      "name": "ProposalCreated",
      "type": "event"
    },
    {
      "anonymous": false,
      "inputs": [
        {
          "indexed": false,
          "internalType": "uint256",
          "name": "proposalId",
          "type": "uint256"
        }
      ],
      "name": "ProposalExecuted",
      "type": "event"
    },
    {
      "anonymous": false,
      "inputs": [
        {
          "indexed": false,
          "internalType": "uint256",
          "name": "proposalId",
          "type": "uint256"
        },
        {
          "indexed": false,
          "internalType": "address",
          "name": "voter",
          "type": "address"
        },
        {
          "indexed": false,
          "internalType": "bool",
          "name": "voteFor",
          "type": "bool"
        }
      ],
      "name": "Voted",
      "type": "event"
    },
    {
      "inputs": [],
      "name": "owner",
      "outputs": [
        {
          "internalType": "address",
          "name": "",
          "type": "address"
        }
      ],
      "stateMutability": "view",
      "type": "function"
    },
    {
      "inputs": [
        {
          "internalType": "uint256",
          "name": "",
          "type": "uint256"
        }
      ],
      "name": "proposals",
      "outputs": [
        {
          "internalType": "string",
          "name": "description",
          "type": "string"
        },
        {
          "internalType": "uint256",
          "name": "votesFor",
          "type": "uint256"
        },
        {
          "internalType": "uint256",
          "name": "votesAgainst",
          "type": "uint256"
        },
        {
          "internalType": "bool",
          "name": "executed",
          "type": "bool"
        },
        {
          "internalType": "address",
          "name": "proposer",
          "type": "address"
        }
      ],
      "stateMutability": "view",
      "type": "function"
    },
    {
      "inputs": [],
      "name": "totalProposals",
      "outputs": [
        {
          "internalType": "uint256",
          "name": "",
          "type": "uint256"
        }
      ],
      "stateMutability": "view",
      "type": "function"
    },
    {
      "inputs": [
        {
          "internalType": "address",
          "name": "",
          "type": "address"
        }
      ],
      "name": "votes",
      "outputs": [
        {
          "internalType": "uint256",
          "name": "",
          "type": "uint256"
        }
      ],
      "stateMutability": "view",
      "type": "function"
    },
    {
      "inputs": [
        {
          "internalType": "string",
          "name": "description",
          "type": "string"
        }
      ],
      "name": "createProposal",
      "outputs": [],
      "stateMutability": "nonpayable",
      "type": "function"
    },
    {
      "inputs": [
        {
          "internalType": "uint256",
          "name": "proposalId",
          "type": "uint256"
        },
        {
          "internalType": "bool",
          "name": "voteFor",
          "type": "bool"
        }
      ],
      "name": "vote",
      "outputs": [],
      "stateMutability": "nonpayable",
      "type": "function"
    },
    {
      "inputs": [
        {
          "internalType": "uint256",
          "name": "proposalId",
          "type": "uint256"
        }
      ],
      "name": "executeProposal",
      "outputs": [],
      "stateMutability": "nonpayable",
      "type": "function"
    }
  ],
  "bytecode": "0x608060405234801561001057600080fd5b50336000806101000a81548173ffffffffffffffffffffffffffffffffffffffff021916908373ffffffffffffffffffffffffffffffffffffffff1602179055506000600181905550610eef806100686000396000f3fe608060405234801561001057600080fd5b506004361061007d5760003560e01c80638da5cb5b1161005b5780638da5cb5b146100ee578063a78d80fc1461010c578063c9d27afe1461012a578063d8bff5a5146101465761007d565b8063013cf08b146100825780630d61b519146100b657806349c2a1a6146100d2575b600080fd5b61009c60048036038101906100979190610927565b610176565b6040516100ad959493929190610b86565b60405180910390f35b6100d060048036038101906100cb9190610927565b610261565b005b6100ec60048036038101906100e791906108e2565b610412565b005b6100f661059b565b6040516101039190610b6b565b60405180910390f35b6101146105bf565b6040516101219190610c60565b60405180910390f35b610144600480360381019061013f9190610950565b6105c5565b005b610160600480360381019061015b91906108b9565b610775565b60405161016d9190610c60565b60405180910390f35b600260205280600052604060002060009150905080600001805461019990610d8a565b80601f01602080910402602001604051908101604052809291908181526020018280546101c590610d8a565b80156102125780601f106101e757610100808354040283529160200191610212565b820191906000526020600020905b8154815290600101906020018083116101f557829003601f168201915b5050505050908060010154908060020154908060030160009054906101000a900460ff16908060030160019054906101000a900473ffffffffffffffffffffffffffffffffffffffff16905085565b60008054906101000a900473ffffffffffffffffffffffffffffffffffffffff1673ffffffffffffffffffffffffffffffffffffffff163373ffffffffffffffffffffffffffffffffffffffff16146102ef576040517f08c379a00000000000000000000000000000000000000000000000000000000081526004016102e690610c00565b60405180910390fd5b60015481111580156103015750600081115b610340576040517f08c379a000000000000000000000000000000000000000000000000000000000815260040161033790610c40565b60405180910390fd5b60006002600083815260200190815260200160002090508060030160009054906101000a900460ff16156103a9576040517f08c379a00000000000000000000000000000000000000000000000000000000081526004016103a090610c20565b60405180910390fd5b80600201548160010154111561040e5760018160030160006101000a81548160ff0219169083151502179055507f712ae1383f79ac853f8d882153778e0260ef8f03b504e2866e0593e04d2b291f826040516104059190610c60565b60405180910390a15b5050565b60008054906101000a900473ffffffffffffffffffffffffffffffffffffffff1673ffffffffffffffffffffffffffffffffffffffff163373ffffffffffffffffffffffffffffffffffffffff16146104a0576040517f08c379a000000000000000000000000000000000000000000000000000000000815260040161049790610c00565b60405180910390fd5b600160008154809291906104b390610dbc565b91905055506000600260006001548152602001908152602001600020905082828260000191906104e492919061078d565b50338160030160016101000a81548173ffffffffffffffffffffffffffffffffffffffff021916908373ffffffffffffffffffffffffffffffffffffffff16021790555060008160030160006101000a81548160ff02191690831515021790555060008160010181905550600081600201819055507f9c770c289ab5bf7e57cb1d23c8ceae993aea46eb64847072fd3d78ca60d3e432600154848460405161058e93929190610cb2565b60405180910390a1505050565b60008054906101000a900473ffffffffffffffffffffffffffffffffffffffff1681565b60015481565b8180600360003373ffffffffffffffffffffffffffffffffffffffff1673ffffffffffffffffffffffffffffffffffffffff168152602001908152602001600020541415610648576040517f08c379a000000000000000000000000000000000000000000000000000000000815260040161063f90610be0565b60405180910390fd5b600154831115801561065a5750600083115b610699576040517f08c379a000000000000000000000000000000000000000000000000000000000815260040161069090610c40565b60405180910390fd5b600060026000858152602001908152602001600020905082156106d5578060010160008154809291906106cb90610dbc565b91905055506106f0565b8060020160008154809291906106ea90610dbc565b91905055505b83600360003373ffffffffffffffffffffffffffffffffffffffff1673ffffffffffffffffffffffffffffffffffffffff168152602001908152602001600020819055507ff2913dbe661ee2acc4a046d8fbcdc792373bda34c41c6086484b5345e5785e5f84338560405161076793929190610c7b565b60405180910390a150505050565b60036020528060005260406000206000915090505481565b82805461079990610d8a565b90600052602060002090601f0160209004810192826107bb5760008555610802565b82601f106107d457803560ff1916838001178555610802565b82800160010185558215610802579182015b828111156108015782358255916020019190600101906107e6565b5b50905061080f9190610813565b5090565b5b8082111561082c576000816000905550600101610814565b5090565b60008135905061083f81610e74565b92915050565b60008135905061085481610e8b565b92915050565b60008083601f84011261086c57600080fd5b8235905067ffffffffffffffff81111561088557600080fd5b60208301915083600182028301111561089d57600080fd5b9250929050565b6000813590506108b381610ea2565b92915050565b6000602082840312156108cb57600080fd5b60006108d984828501610830565b91505092915050565b600080602083850312156108f557600080fd5b600083013567ffffffffffffffff81111561090f57600080fd5b61091b8582860161085a565b92509250509250929050565b60006020828403121561093957600080fd5b6000610947848285016108a4565b91505092915050565b6000806040838503121561096357600080fd5b6000610971858286016108a4565b925050602061098285828601610845565b9150509250929050565b61099581610d00565b82525050565b6109a481610d12565b82525050565b60006109b68385610cef565b93506109c3838584610d48565b6109cc83610e63565b840190509392505050565b60006109e282610ce4565b6109ec8185610cef565b93506109fc818560208601610d57565b610a0581610e63565b840191505092915050565b6000610a1d602883610cef565b91507f596f75206861766520616c726561647920766f74656420666f7220746869732060008301527f70726f706f73616c0000000000000000000000000000000000000000000000006020830152604082019050919050565b6000610a83602183610cef565b91507f4f6e6c79206f776e65722063616e2063616c6c20746869732066756e6374696f60008301527f6e000000000000000000000000000000000000000000000000000000000000006020830152604082019050919050565b6000610ae9601983610cef565b91507f50726f706f73616c20616c7265616479206578656375746564000000000000006000830152602082019050919050565b6000610b29601283610cef565b91507f496e76616c69642070726f706f73616c496400000000000000000000000000006000830152602082019050919050565b610b6581610d3e565b82525050565b6000602082019050610b80600083018461098c565b92915050565b600060a0820190508181036000830152610ba081886109d7565b9050610baf6020830187610b5c565b610bbc6040830186610b5c565b610bc9606083018561099b565b610bd6608083018461098c565b9695505050505050565b60006020820190508181036000830152610bf981610a10565b9050919050565b60006020820190508181036000830152610c1981610a76565b9050919050565b60006020820190508181036000830152610c3981610adc565b9050919050565b60006020820190508181036000830152610c5981610b1c565b9050919050565b6000602082019050610c756000830184610b5c565b92915050565b6000606082019050610c906000830186610b5c565b610c9d602083018561098c565b610caa604083018461099b565b949350505050565b6000604082019050610cc76000830186610b5c565b8181036020830152610cda8184866109aa565b9050949350505050565b600081519050919050565b600082825260208201905092915050565b6000610d0b82610d1e565b9050919050565b60008115159050919050565b600073ffffffffffffffffffffffffffffffffffffffff82169050919050565b6000819050919050565b82818337600083830152505050565b60005b83811015610d75578082015181840152602081019050610d5a565b83811115610d84576000848401525b50505050565b60006002820490506001821680610da257607f821691505b60208210811415610db657610db5610e34565b5b50919050565b6000610dc782610d3e565b91507fffffffffffffffffffffffffffffffffffffffffffffffffffffffffffffffff821415610dfa57610df9610e05565b5b600182019050919050565b7f4e487b7100000000000000000000000000000000000000000000000000000000600052601160045260246000fd5b7f4e487b7100000000000000000000000000000000000000000000000000000000600052602260045260246000fd5b6000601f19601f8301169050919050565b610e7d81610d00565b8114610e8857600080fd5b50565b610e9481610d12565b8114610e9f57600080fd5b50565b610eab81610d3e565b8114610eb657600080fd5b5056fea26469706673582212201fe7048db1742b23223525d76b382dc02d31a18342a980e70cacb1caeaee84d064736f6c63430008000033",
  "immutableReferences": {},
  "source": "pragma solidity ^0.8.0;\n\ncontract Governance {\n    struct Proposal {\n        string description;\n        uint256 votesFor;\n        uint256 votesAgainst;\n        bool executed;\n        address proposer;\n    }\n\n    address public owner;\n    uint256 public totalProposals;\n    mapping(uint256 => Proposal) public proposals;\n    mapping(address => uint256) public votes;\n\n    event ProposalCreated(uint256 proposalId, string description);\n    event Voted(uint256 proposalId, address voter, bool voteFor);\n    event ProposalExecuted(uint256 proposalId);\n\n    modifier onlyOwner() {\n        require(msg.sender == owner, \"Only owner can call this function\");\n        _;\n    }\n\n    modifier hasNotVoted(uint256 proposalId) {\n        require(votes[msg.sender] != proposalId, \"You have already voted for this proposal\");\n        _;\n    }\n\n    constructor() {\n        owner = msg.sender;\n        totalProposals = 0;\n    }\n\n    function createProposal(string calldata description) external onlyOwner {\n        totalProposals++;\n        Proposal storage newProposal = proposals[totalProposals];\n        newProposal.description = description;\n        newProposal.proposer = msg.sender;\n        newProposal.executed = false;\n        newProposal.votesFor = 0;\n        newProposal.votesAgainst = 0;\n\n        emit ProposalCreated(totalProposals, description);\n    }\n\n    function vote(uint256 proposalId, bool voteFor) external hasNotVoted(proposalId) {\n        require(proposalId <= totalProposals && proposalId > 0, \"Invalid proposalId\");\n\n        Proposal storage proposal = proposals[proposalId];\n\n        if(voteFor) {\n            proposal.votesFor++;\n        } else {\n            proposal.votesAgainst++;\n        }\n\n        votes[msg.sender] = proposalId;\n\n        emit Voted(proposalId, msg.sender, voteFor);\n    }\n\n    function executeProposal(uint256 proposalId) external onlyOwner {\n        require(proposalId <= totalProposals && proposalId > 0, \"Invalid proposalId\");\n\n        Proposal storage proposal = proposals[proposalId];\n\n        require(!proposal.executed, \"Proposal already executed\");\n\n        if(proposal.votesFor > proposal.votesAgainst) {\n            proposal.executed = true;\n            emit ProposalExecuted(proposalId);\n        }\n    }\n}\n\n",
  "sourcePath": "/Users/mylesgamez/Downloads/solidityDAO/contracts/Governance.sol",
  "compiler": {
    "name": "solc",
    "version": "0.8.0+commit.c7dfd78e.Emscripten.clang"
  },
  "schemaVersion": "3.4.15",
  "updatedAt": "2023-08-20T01:43:47.304Z",
  "devdoc": {
    "kind": "dev",
    "methods": {},
    "version": 1
  },
  "userdoc": {
    "kind": "user",
    "methods": {},
    "version": 1
  }
}